S01000006669726D776172652E73726563B7
S11300000C9487000C94AF000C94AF000C94AF00D8
S11300100C94AF000C94AF000C94AF000C949E1899
S11300200C94AF000C94AF000C94AF000C943117F7
S11300300C94AF000C94AF000C94AF000C94AF0080
S11300400C9488190C94AF000C944B1B0C947D1BDE
S11300500C94AF000C94AF000C94AF000C94AF0060
S11300600C94AF000C94AF0008130D1315131B135D
S11300701D1327132D1331137C3C3E5E2B3D3F2F64
S11300805B5D3B2C2A225C000F0E00011F1E101129
S11300902F2E20210D0C02031D1C12132D2C2223A4
S11300A00B0A04051B1A14152B2A24250908060714
S11300B01918161729282627000000080002010035
S11300C0000304070000000000000000010204080F
S11300D010204080010204081020010204081020AE
S11300E004040404040404040202020202020303DA
S11300F00303030300000000250028002B00000078
S11301000000240027002A00CC031307A31B11249A
S11301101FBECFEFD8E0DEBFCDBF11E0A0E0B1E05D
S1130120E8EBFEE302C005900D92A035B107D9F7C4
S113013025E0A0E5B1E001C01D92AF33B207E1F7BD
S113014010E0C7E8D0E004C02197FE010E94911C92
S1130150C438D107C9F70E94EE130C945A1F0C94AB
S11301600000CF93CFB7F89480915301811127C039
S1130170EAEEF0E08491E6EDF0E09491E82FF0E00F
S1130180EE0FFF1FE250FF4FA591B491EC91E923CC
S113019021F461E08AE00E94401A61E08AE00E9452
S11301A0071A8CB580618CBD8CB580648CBD61E010
S11301B08DE00E94071A61E08BE00E94071A80918B
S11301C053018F5F80935301CFBFCF910895CF9395
S11301D0DF931F92CDB7DEB76983DC01ED91FC910B
S11301E00280F381E02D41E050E0BE016F5F7F4F5C
S11301F009950F90DF91CF910895CF93DF93EC0190
S1130200898D9A8D009739F481E090E09B838A83ED
S113021080E090E00BC0FC01138212820E94900CDB
S1130220E98DFA8D22813381232B71F7DF91CF91F0
S11302300895FC01818D928D009711F00C94270A8A
S11302400895CF93DF931F92CDB7DEB741E050E01E
S1130250BE016F5F7F4F0E944308019719F48981A3
S113026090E002C08FEF9FEF0F90DF91CF91089540
S1130270FC01818D928D009711F00C9421018FEF78
S11302809FEF08950F931F93CF93DF93FC01818D0C
S1130290928D0097B9F0EF010E9421018C010F3F6C
S11302A08FEF180791F0898D9A8DFC014285538553
S11302B06485758541505109610971090E9491094C
S11302C0C80105C080E090E002C08FEF9FEFDF918E
S11302D0CF911F910F910895EF92FF920F931F9367
S11302E0CF93DF93EC017B018A011B821A8288EE93
S11302F093E0A0E0B0E08C839D83AE83BF838EE067
S113030091E0998388838DE190E00E94B11C9A8FDB
S1130310898F009779F02DE1F701DC0101900D92AE
S11303202A95E1F74CE050E0B801CE010C960E940A
S1130330111F188EDF91CF911F910F91FF90EF90B5
S11303400895FC011382128288EE93E0A0E0B0E0ED
S113035084839583A683B7838EE091E09183808321
S1130360128E118E14860895FC01818D928D009752
S113037029F00E94910991E0811101C090E0892F38
S11303800895DC015996ED91FC915A97309729F024
S1130390628573858485958508956FEF7FEFCB0122
S11303A00895DC015996ED91FC915A97309729F004
S11303B06389748985899689089560E070E0CB012A
S11303C00895CF92DF92EF92FF92CF93DF93FC01D7
S11303D0218D328D232BD9F0EC010E94D1016B01C8
S11303E07C01CE010E94C101A7019601261B370B97
S11303F0480B590BDA01C901811530E89307A105AF
S1130400B10538F08FEF9FE7A0E0B0E002C080E0D4
S113041090E0DF91CF91FF90EF90DF90CF9008951F
S1130420CF93DF93EC01898D9A8D009741F00E9460
S11304306E0A898D9A8D0E94461D1A8E198EDF913F
S1130440CF910895DC015996ED91FC915A9730971C
S113045021F081E09581911101C080E008950F930E
S11304601F93CF93DF93EC01462F61E00E94FE04BB
S1130470882391F08E01045F1F4F41E0BE01C80143
S11304800E94D411882351F0B801CE018A960E94AB
S1130490F20791E081110AC090E008C040E0BE017B
S11304A0C8010E94D4118823B9F3EECF892FDF91BC
S11304B0CF911F910F910895FC01DB0112968D914C
S11304C09C9113979383828380E291E0918380834C
S11304D014968C911497848315968C911597858323
S11304E016964D915D916D917C9119974683578332
S11304F0608771871A964D915D916D917C911D97DE
S113050042875387648775871E964D915D916D91DF
S11305107C91519746875787608B718B52968C914B
S11305205297828B53964D915D916D917C91569724
S1130530438B548B658B768B57964D915D916D9162
S11305407C915A97478B508F618F728F5B968D91F8
S11305509C915C97948F838F08954F925F926F92D2
S11305607F928F929F92AF92BF92CF92DF92EF923F
S1130570FF920F931F93CF93DF93CDB7DEB7C7548A
S1130580D1090FB6F894DEBF0FBECDBF6C015A017E
S11305904901665D7F4F7E018EE1E80EF11CC701C3
S11305A00E945C021C821B8280E291E09A83898310
S11305B01E828501FE0131963F0127016FE270E042
S11305C0C8010E94061F0097D9F1F80120812F323B
S11305D019F40F5F1F4FF2CF801B8D3008F08CE0B1
S11305E0E82EF12CA701B801CE01CB960E94111F71
S11305F0EBE3F0E0EC0FFD1FEE0DFF1D1082C301D5
S11306000E946E0A21E0AE01455C5F4FB201C30156
S11306100E94A20B811109C0F6011382128280E2AA
S113062091E091838083158214C00E0D1F1DC201B9
S11306300E946E0A942D852D2301692E782EBECF3B
S11306400A191B09F40111830083B201C6010E9437
S11306505C02C601C95BDF4F0FB6F894DEBF0FBE64
S1130660CDBFDF91CF911F910F91FF90EF90DF905D
S1130670CF90BF90AF909F908F907F906F905F903E
S11306804F900895AF92BF92CF92DF92FF920F9353
S11306901F93CF93DF93CDB7DEB7C955D1090FB6FA
S11306A0F894DEBF0FBECDBF6C015B018A01F22E50
S11306B09E01285A3F4FCE01CB960E94AD026A9606
S11306C08EAD9FAD6A97080F191FF80180818111C3
S11306D00AC0BE01655C7F4FCE0101960E945C0298
S11306E04AE151E041C019A218A280E291E09F8F33
S11306F08E8F1BA221968FAD2197811104C0C60154
S11307000E94A10137C08250823060F4B501665D59
S11307107F4F2F2DA801CE014E960E94A20B81116E
S113072010C0EDCF2F2DA801BE01655C7F4FCE0117
S11307304E960E94A20B882311F3CE01CB960E9401
S11307406E0A9F2D967041F049A95AA96BA97CA9FC
S1130750CE014E960E949109BE01625E7F4FCE018A
S113076001960E945C02A801BE016F5F7F4FC60123
S11307700E946C01C601C75ADF4F0FB6F894DEBF62
S11307800FBECDBFDF91CF911F910F91FF90DF90EE
S1130790CF90BF90AF900895E4E5F1E01582168202
S11307A01186138682E090E0A0E0B0E0848795870C
S11307B0A687B78713A215A614A680E291E093A793
S11307C082A717A6089520915201222399F04FB7CA
S11307D0F89420915201213059F42DB32093500103
S11307E03DB320915101209523232DBB4FBF02C05F
S11307F0409350018CBD9DBD08958EBD00000DB485
S113080007FEFDCF8EB508958FEF0C94FD03809104
S11308105201882361F09FB7F8942091520180918E
S11308205001213019F48DBB9FBF08958FBF0895E7
S113083061E0FC0184810E94401A80919D0188231B
S113084021F010929D010C9407040895CF93DF9337
S1130850EC0180919D01811109C081E080939D018B
S113086080919E0190919F010E94E30360E08C813E
S1130870DF91CF910C94401ACF93DF93EC018E81DA
S1130880882389F08F8198859C012F5F3F4F38879B
S11308902F838230924018F40E940404F3CFCE01D7
S11308A00E9418041E82DF91CF910895673028F0CA
S11308B026E1FC01258380E00895623081F030F464
S11308C0662359F06130B1F480E515C0643059F005
S11308D040F0653079F482E50EC080E505C081E51D
S11308E003C081E508C082E580939E0181E0809386
S11308F09F01089583E580939E0110929F0181E0FA
S113090008950F931F93CF93DF93EB010E94D219A5
S11309108B010E9404048F3F49F00E94D219601B8E
S1130920710B6C177D07A8F380E001C081E0DF91B3
S1130930CF911F910F910895CF92DF92FF920F9361
S11309401F93CF93DF9300D000D0CDB7DEB76C01F7
S1130950F62E29833A834B835C830E943C04C601B0
S11309600E9426046CE271E0C6010E9481048F2D6E
S113097080640E94FD0308E110E05C814B813A81B0
S11309802981DA01C901002E04C0B695A79597956F
S113099087950A94D2F729833A834B835C830E9418
S11309A0FD030850110929813A814B815C81083F7C
S11309B08FEF180731F7FF2029F0E8E0FE1204C09A
S11309C087E803C085E901C08FEF0E94FD0310E0B2
S11309D00E940404F601828787FF04C01F3F11F0C0
S11309E01F5FF6CF0F900F900F900F90DF91CF9174
S11309F01F910F91FF90DF90CF9008958F929F9257
S1130A00AF92BF92EF92FF920F931F93CF93DF9316
S1130A10EC01E62E1B8619861E821D824C830E94E1
S1130A20D2194B015C0161E08C810E94071A61E0DC
S1130A308C810E94401A0E94B10082E580939E013D
S1130A4010929F0180919E0190919F010E94E30367
S1130A501AE08FEF0E94FD031150D9F784010E9420
S1130A600704CE010E94260420E030E0A90160E0E2
S1130A70CE010E949C04F82E8A8781E0F81649F082
S1130A800E94D219601B710B613D774068F381E0CD
S1130A904CC02AEA31E040E050E068E0CE010E9418
S1130AA09C0482FF02C0FB860EC094E0F92E0E94D3
S1130AB004048A87FA94F110FACF8A3A11F082E09A
S1130AC034C082E08B878B85823021F0812C912C7D
S1130AD0540105C0812C912CA12C80E4B82E20E077
S1130AE030E0A90167E3CE010E949C04A5019401B2
S1130AF069E2CE010E949C048A87882349F00E94FF
S1130B00D219601B710B613D774048F388E00DC03A
S1130B108B85823039F520E030E0A9016AE3CE010B
S1130B200E949C04882389F086E08D83CE010E9474
S1130B30180480E0DF91CF911F910F91FF90EF9007
S1130B40BF90AF909F908F9008950E940404807C82
S1130B50803C11F483E08B870E9404040E94040407
S1130B600E940404CE010E9418046E2DCE01DF9170
S1130B70CF911F910F91FF90EF90BF90AF909F90F6
S1130B808F900C9456040F931F93CF93DF93EC0133
S1130B900E94D2198B010E9404048A878F3F49F472
S1130BA00E94D219601B710B6D327140A0F38FE06B
S1130BB003C08E3F39F08DE08D83CE010E9418046E
S1130BC080E001C081E0DF91CF911F910F910895E2
S1130BD0CF92DF92EF92FF920F931F93CF93DF9305
S1130BE0EC016901C801820F931F8130924008F023
S1130BF05CC08E81882371F088819981AA81BB8130
S1130C00481759076A077B0729F48F819885C81606
S1130C10D90610F5488359836A837B838B85833097
S1130C2039F089E0440F551F661F771F8A95D1F765
S1130C309A01AB0161E1CE010E949C04882319F062
S1130C4083E08D8332C0CE010E94C305882369F1FD
S1130C5018861F8281E08E838F8198858C159D056F
S1130C6040F40E9404048F819885019698878F83AD
S1130C70F3CF6701E00EF11ECE14DF0431F00E94C1
S1130C800404F60181936F01F7CF8F819885080FD3
S1130C90191F18870F838985882319F001151240BD
S1130CA048F0CE010E943C0405C0CE010E94180405
S1130CB080E001C081E0DF91CF911F910F91FF90FF
S1130CC0EF90DF90CF900895EF92FF920F931F93D0
S1130CD00115110519F00E94E80501C081E01F917A
S1130CE00F91FF90EF900895EF92FF920F931F934F
S1130CF0790100E012E020E030E00E94E8051F9155
S1130D000F91FF90EF900895CF92DF92EF92FF92B0
S1130D100F931F93CF93DF9300D0CDB7DEB78C0131
S1130D20862F49835A830E94FD034981C42E5A8128
S1130D30D52E76018EEFF81AF60181916F010E948B
S1130D40FD03CE14DF04C1F78FEF0E94FD038FEF84
S1130D500E94FD030E940404F8018287982F9F716A
S1130D60953039F081E18583C8010E94180480E040
S1130D7001C081E00F900F90DF91CF911F910F91EF
S1130D80FF90EF90DF90CF9008950F931F93CF9330
S1130D90DF93EC018901411551056105710511F4D9
S1130DA082E132C08B85833039F089E0440F551FCE
S1130DB0661F771F8A95D1F79A01AB0168E1CE01CE
S1130DC00E949C04882311F084E01EC0A8016EEFE9
S1130DD0CE010E9484068823C1F068E572E0CE014A
S1130DE00E948104811102C085E10EC020E030E040
S1130DF0A9016DE0CE010E949C04811104C00E94EF
S1130E000404882339F084E18D83CE010E94180400
S1130E1080E004C0CE010E94180481E0DF91CF91EC
S1130E201F910F910895EEE9F1E080E5808311822E
S1130E300895CF93DF93EC019C012A5F3F4F41E07B
S1130E4050E060E070E08B8D9C8D0E9469108823D7
S1130E50A1F08F89988DA98DBA8D892B8A2B8B2B24
S1130E6059F48E819F81A885B9858F8B988FA98F1E
S1130E70BA8F8C8180688C8381E0DF91CF91089553
S1130E80CF92DF92EF92FF921F93CF93DF93EC0107
S1130E900E941907811102C080E04AC0EB8DFC8DCD
S1130EA0CE80DF80E884F98482E0C81AD108E108A2
S1130EB0F108058404C0CC0CDD1CEE1CFF1C0A9454
S1130EC0D2F786859785A089B189C80ED91EEA1EF6
S1130ED0FB1E148181E0C81AD108E108F10811232E
S1130EE061F0C701B601610F711D811D911D0E9442
S1130EF0B80E882389F21150F2CFEB8DFC8D80E07F
S1130F0092E0A0E0B0E0058404C0880F991FAA1FF6
S1130F10BB1F0A94D2F74B895C896D897E89840F43
S1130F20951FA61FB71F8B8B9C8BAD8BBE8B81E04F
S1130F30DF91CF911F91FF90EF90DF90CF900895B4
S1130F40CF93DF93EC01462F6E857F85888999893D
S1130F500E947D0E882341F08A8920E2829FC0018D
S1130F60112487559E4F02C080E090E0DF91CF911D
S1130F700895FB019B01255F3F4F40E24193E21737
S1130F80F307E1F7DC0190E027E08D91882319F164
S1130F908E3219F0E8E7F0E008C02A3009F198E051
S1130FA02AE0F3CF31963817D9F034913111FACFC2
S1130FB02917B0F03FED380F3E3590F431E0390F8A
S1130FC0FB01E90FF11D9FE9980F9A3108F4805253
S1130FD08083932FDACF81E0FB019081903209F472
S1130FE080E008950F931F93CF93DF93FC01258135
S1130FF0222311F080E042C08B01EC01FB018789C0
S11310008031B1F482E08D831F8A188E198E1A8E76
S1131010808D918DA0E0B0E025E0880F991FAA1F74
S1131020BB1F2A95D1F78B8B9C8BAD8BBE8B15C0C8
S1131030803201F783E08D83FB01428D538D648DF3
S1131040758D4F8B588F698F7A8F9E012D5E3F4F20
S1131050C8010E94600F882369F21C8F0B8F81E006
S11310608C831E821F82188619861A861B861C860C
S11310701D861E861F86188A198A1A8ADF91CF91C7
S11310801F910F9108952F923F924F925F926F920A
S11310907F928F929F92AF92BF92CF92DF92EF9204
S11310A0FF920F931F93CF93DF93EC015B014A01EF
S11310B08D81811103C08FEF9FEFD7C08C8180FF9A
S11310C0FACF4B885C886D887E884A855B856C8501
S11310D07D85C401A0E0B0E093018201041B150BDF
S11310E0260B370B081719072A073B0718F4420188
S11310F0841A950A24011E0126E0220E311C411493
S1131100510409F47EC04A855B856C857D856A013E
S113111081E0D822ED818A019B0189E036952795EB
S1131120179507958A95D1F78B8D9C8DE23061F4E4
S1131130FC01828D938DA48DB58DBC01CD01600F12
S1131140711F821F931F3FC0FC0174807A94702228
S1131150C114D104C9F4711017C0452B462B472B79
S113116049F48F89988DA98DBA8D8E839F83A88722
S1131170B9870AC04E815F816885798591010E9493
S1131180DC0E882309F497CFEB8DFC8D8E819F8133
S1131190A885B9850297A109B109058404C0880FFF
S11311A0991FAA1FBB1F0A94D2F7468557856089E9
S11311B07189840F951FA61FB71FBC01CD01670D50
S11311C0711D811D911D20E032E02C193D09320171
S11311D02415350508F439012C8126FD04C0611459
S11311E0F2E07F0679F50091060110910701209144
S11311F0080130910901601771078207930719F4F8
S113120021C0C40132C0750183019601AB01BC0148
S11312108091A7019091A8010E946406882309F493
S11312204ACFA60CB71C8A859B85AC85BD85860DE7
S1131230971DA11DB11D8A879B87AC87BD87461862
S113124057085DCF40E00E947D0E882309F433CF18
S1131250F601E755FE4FD501CF01860D971DE8171E
S1131260F907F9F221912D93FACFDF91CF911F91D4
S11312700F91FF90EF90DF90CF90BF90AF909F9031
S11312808F907F906F905F904F903F902F90089534
S1131290FF920F931F93CF93DF931F92CDB7DEB7C7
S11312A0FC012581223018F480E090E033C08C01E9
S11312B0FC01428553856485758585E0769567953F
S11312C0579547958A95D1F7F42FFF70FF2E41E08B
S11312D050E0BE016F5F7F4FC8010E944308019731
S11312E019F4898190E002C08FEF9FEF0196E1F23B
S11312F0F80182859385A485B5854F96A11DB11DFE
S113130082879387A487B587F0E2FF9EC0011124EA
S113131087559E4F0F90DF91CF911F910F91FF90B2
S113132008958F929F92AF92BF92CF92DF92EF92E5
S1131330FF920F931F93CF93DF93EC018D81811163
S113134002C080E077C00B891C892D893E8904176F
S1131350150726073707A8F36A017B01823029F4B1
S1131360CA86DB86EC86FD860DC0C114D104E10477
S1131370F10451F41E821F82188619861A861B8670
S11313801C861D8681E056C08A849B84AC84BD84FF
S1131390EB8DFC8D258530E0275F3F4FB501A4011F
S11313A04150510961097109022E04C0769567956F
S11313B0579547950A94D2F7D701C6010197A10919
S11313C0B10904C0B695A795979587952A95D2F744
S11313D084179507A607B70720F089288A288B2841
S11313E049F44F89588D698D7A8D4E835F83688760
S11313F0798704C0841B950BA60BB70B4C015D01C8
S11314008E010A5F1F4F81149104A104B10409F4F1
S1131410A7CF4E815F816885798598018B8D9C8DDE
S11314200E94DC0E91E0891A9108A108B10881118B
S1131430EACF87CFDF91CF911F910F91FF90EF906B
S1131440DF90CF90BF90AF909F908F9008950F93AF
S11314501F93CF93DF93EC018D818823C9F18C8195
S113146087FF30C061E0CE010E94A0078C01892B68
S113147079F18D81823048F48B899C89AD89BE894C
S1131480F801848F958FA68FB78F8F89988DA98D3A
S1131490BA8DF801938F828FB58BA48BE091A00154
S11314A0F091A101309759F0B8016A5E7F4FC801ED
S11314B048960995F801808D918D938B828B8C8150
S11314C08F778C83DF91CF911F910F910C94420EF3
S11314D080E0DF91CF911F910F910895CF93DF9317
S11314E0EC010E94270A882311F01D8281E0DF911C
S11314F0CF9108954F925F926F927F928F929F92B5
S1131500AF92BF92EF92FF920F931F93CF93DF930B
S113151000D000D0CDB7DEB7FC0185818130E9F47D
S1131520848181FF1AC083899489A589B689841727
S11315309507A607B70788F0892B8A2B8B2B09F40C
S113154079C04A015B017F014284538464847584B9
S1131550CF010E949109811102C080E06CC0F701A3
S1131560838D948D81149104A104B10471F447898D
S1131570508D618D728D0E947E11882371F3F70165
S1131580178A108E118E128E3AC0F7014681578148
S1131590608571859E012F5F3F4F0E94DC0E88237A
S11315A0E1F249815A816B817C81F701838D948DAD
S11315B0FC012789203129F008EF1FEF2FEF3FE0CE
S11315C004C008EF1FEF20E030E040175107620726
S11315D07307A8F40E947E11882309F4BECFF70193
S11315E046815781608571850FEF1FEF2FEF3FE034
S11315F0838D948D0E94C90F882309F4AECFF7011F
S1131600838A948AA58AB68A848180688483C70180
S11316100E94270A882309F4A0CFB501A401481425
S113162059046A047B0410F4B301A201C7010E94A7
S1131630910901C081E00F900F900F900F90DF91FE
S1131640CF911F910F91FF90EF90BF90AF909F901B
S11316508F907F906F905F904F9008951F93CF93DA
S1131660DF93EC0180E2689FF00111249F0127556C
S11316703E4FD9011B969C91917129F0842F82745D
S113168011F080E05BC0142F6A8B80910601909169
S11316900701A0910801B09109018E879F87A88B4B
S11316A0B98BE755FE4F4489558960E070E0BA0173
S11316B0552744274F8B588F698F7A8F828D938D4E
S11316C0A0E0B0E0482B592B6A2B7B2B4F8B588F13
S11316D0698F7A8FD9011B968C91887151F4848D0E
S11316E0958DA68DB78D8B8B9C8BAD8BBE8B81E03E
S11316F00DC0803131F69E012D5E3F4F8B8D9C8D48
S11317000E94600F882309F4BCCF84E08D83812F6D
S11317108F708C831E821F82188619861A861B86F8
S11317201C861D8616FF09C040E050E0BA01CE01B8
S1131730DF91CF911F910C947A0A81E0DF91CF91D0
S11317401F910895CF92DF92EF92FF920F931F9310
S1131750CF93DF93CDB7DEB72C970FB6F894DEBFE7
S11317600FBECDBFFC0135813111C2C0D22E8B0119
S11317707C01BE016F5F7F4FCA010E94B9078823B5
S113178009F4B6C0F801838D948DF701948F838F8B
S1131790F801168217821086118612861386148623
S11317A0158630E0F80182859385A485B585438943
S11317B054896589768984179507A607B70708F0C1
S11317C041C025E0B695A795979587952A95D1F7B9
S11317D0F82FFF70CF2EC8013C870E9448093C8532
S11317E0009709F485C0FC012081222309F484C0F8
S11317F0253E99F04BE050E0BC01CE0101963C87B8
S11318000E94F91E3C85892B69F68D2D80738033E7
S113181009F46EC04D2D6C2D67C031116BC0F701FA
S1131820C28A4091060150910701609108017091AC
S1131830090146875787608B718BFC01808131E0F9
S11318408111B0CF8D2D8271823109F051C03323C3
S113185041F061E0C7010E94A0078C01892B79F453
S113186047C0F8018581823009F442C0C8010E9452
S113187040078823E9F1F701128A09EA11E080E2BE
S1131880F80111928A95E9F78BE0FE013196D801AF
S113189001900D928A95E1F7E091A001F091A101E8
S11318A0309739F0B801625F7F4FC80140960995BF
S11318B009C081E298E2F801918B808B80E098E086
S11318C097878687F80180899189938B828B918F82
S11318D0808F86859785978B868B0E94420E8823FE
S11318E039F04D2DF7016289C7010E942E0B09C002
S11318F080E007C031E056CF332309F490CF31E0C4
S1131900A1CF2C960FB6F894DEBF0FBECDBFDF91EA
S1131910CF911F910F91FF90EF90DF90CF9008959A
S11319202F923F924F925F926F927F928F929F92EB
S1131930AF92BF92CF92DF92EF92FF920F931F93D9
S1131940CF93DF9300D000D0CDB7DEB78C016B010D
S11319503A01DC0115968C9115978130C9F41496DF
S11319608C9181FF15C082FF1DC0F8014389548901
S11319706589768982859385A485B58584179507BD
S1131980A607B70779F0C8010E94910981110AC01E
S113199081E090E0D80113969C938E93129780E097
S11319A090E048C1430184C0D8015B968D919C911D
S11319B05C97FC0154802FEF250D1A012B0139E0AF
S11319C056944794379427943A95D1F7522E52203F
S11319D07A01F1E0FF22552009F476C080E092E01C
S11319E08E199F0954018815990508F45C01D801E2
S11319F05B962D913C915C9716968D919D910D90DF
S1131A00BC91A02D0297A109B109F901058404C074
S1131A10880F991FAA1FBB1F0A94D2F746855785C2
S1131A2060897189840F951FA61FB71F9C01AD01A2
S1131A30250D311D411D511D19012A01A11432E04A
S1131A40B30609F088C08091060190910701A09126
S1131A500801B091090182159305A405B50559F44F
S1131A608FEF9FEFDC018093060190930701A09311
S1131A700801B09309019601B201A1018091A70167
S1131A809091A8010E94C506882309F481CF9EEF96
S1131A90D91A8A189B08F80182859385A485B5858F
S1131AA08A0D9B1DA11DB11D82879387A487B587CD
S1131AB0D8011A964D915D916D917C911D97811479
S1131AC0910409F071CF87C0E114F10409F086CFC5
S1131AD016964D915D916D917C9119974115510523
S1131AE06105710559F457968D919D910D90BC91A6
S1131AF0A02D0097A105B10541F521C09E012F5FDE
S1131B003F4F0E94DC0E882309F44ACF89819A81D1
S1131B10AB81BC81F801238D348DF90127892031F3
S1131B2029F048EF5FEF6FEF7FE004C048EF5FEF0D
S1131B3060E070E084179507A607B70730F0C80186
S1131B400E94190781114ACF23CFF8018683978316
S1131B50A087B18743CFE114F10429F5D8011A967F
S1131B604D915D916D917C911D9753968D919D91B1
S1131B700D90BC91A02D481759076A077B0798F070
S1131B800E94420E882309F403CF2092060130926A
S1131B90070140920801509209018091A6018160D9
S1131BA08093A60108C041E0C201B1010E947D0EEC
S1131BB0882309F4EDCED601F701E755FE4FCF0196
S1131BC08A0D9B1DE817F90719F02D912193FACF7F
S1131BD0CA0CDB1C5ECF5396CD90DD90ED90FC904B
S1131BE0569714968C91C416D506E606F70640F46B
S1131BF0F801438B548B658B768B806884830DC08E
S1131C002091A0013091A101232B39F061147104BA
S1131C1021F08068D80114968C93F801848183FDA7
S1131C2002C0C30107C0C8010E94270A882309F41F
S1131C30AFCEF7CF0F900F900F900F90DF91CF9111
S1131C401F910F91FF90EF90DF90CF90BF90AF90D6
S1131C509F908F907F906F905F904F903F902F90C8
S1131C600895CF93DF931F92CDB7DEB7698341E028
S1131C7050E0BE016F5F7F4F0E94900C0F90DF9188
S1131C80CF9108958091A6018823A9F1409106017E
S1131C9050910701609108017091090129EA31E02E
S1131CA08091A7019091A8010E94C506811102C0EC
S1131CB080E008954091A2015091A3016091A40194
S1131CC07091A501411551056105710591F029EA4D
S1131CD031E08091A7019091A8010E94C506882354
S1131CE039F31092A2011092A3011092A401109250
S1131CF0A5011092A60181E00895CF92DF92EF92A0
S1131D00FF92CF936B017C01C42F809106019091C7
S1131D100701A0910801B09109018C159D05AE053C
S1131D20BF05D1F00E94420E811102C080E01AC0AA
S1131D3029EA31E0B701A6018091A7019091A80199
S1131D400E947406882391F3C0920601D092070181
S1131D50E0920801F09209018091A601C82BC0937A
S1131D60A60181E0CF91FF90EF90DF90CF9008958E
S1131D70CF92DF92EF92FF926B017C010E94420EA0
S1131D808823A9F0E9EAF1E0119283E0E93AF8073F
S1131D90D9F7C0920601D0920701E0920801F092AF
S1131DA009018091A60181608093A60181E0FF90E2
S1131DB0EF90DF90CF9008958F929F92AF92BF9251
S1131DC0CF92DF92EF92FF920F931F93CF93DF9303
S1131DD0FC0181859285A385B4850196A11DB11D61
S1131DE084179507A607B70710F480E05CC08389C1
S1131DF09489A589B689C789C03129F4852E962E80
S1131E00A72EBB2409C04A015B01C7E0B694A7947E
S1131E1097948794CA95D1F7E9016A017B018F01F0
S1131E20BC01CD01680D791D8A1D9B1D80900601A2
S1131E3090900701A0900801B090090168157905F8
S1131E408A059B0599F4F80187898031A9F4B701C3
S1131E50A601552766277727440F551FFA01E75532
S1131E60FE4F80819181A0E0B0E018C040E00E9464
S1131E707D0E8111E8CFB9CFB701A6014F77552761
S1131E8066277727440F551F440F551FFA01E7555E
S1131E90FE4F80819181A281B381BF708883998331
S1131EA0AA83BB8381E0DF91CF911F910F91FF90B3
S1131EB0EF90DF90CF90BF90AF909F908F90089558
S1131EC04F925F926F927F92AF92BF92CF92DF92C6
S1131ED0EF92FF920F931F93CF93DF9300D000D024
S1131EE0CDB7DEB78C0149835A836B837C83590158
S1131EF0C12CD12C7601412C82E0582E612C712CFE
S1131F0049815A816B817C819E012F5F3F4FC801BB
S1131F100E94DC0E882351F1D301C201F80105842B
S1131F2004C0880F991FAA1FBB1F0A94D2F7C80EBA
S1131F30D91EEA1EFB1E49815A816B817C818789E7
S1131F40803129F088EF9FEFAFEFBFE004C088EF46
S1131F509FEFA0E0B0E0481759076A077B0780F2BB
S1131F60F501C082D182E282F38281E00F900F906A
S1131F700F900F90DF91CF911F910F91FF90EF90F1
S1131F80DF90CF90BF90AF907F906F905F904F9015
S1131F9008954F925F926F927F928F929F92AF9229
S1131FA0BF92CF92DF92EF92FF920F931F93CF9342
S1131FB0DF93EC016A017B012801390142305105AC
S1131FC06105710510F480E073C089859A85AB853D
S1131FD0BC850196A11DB11D84179507A607B707F7
S1131FE090F38B889C88AD88BE888F89803129F4D2
S1131FF0BB27AF2D9E2D8D2D09C0DB01CA0147E003
S1132000B695A795979587954A95D1F7880E991E09
S1132010AA1EBB1E8091060190910701A0910801A0
S1132020B091090188169906AA06BB0679F48F892E
S11320308031A1F4DD24EE24FF24C601880F991F0A
S1132040FC01E755FE4F5182408219C040E0C501B2
S1132050B4010E947D0E8111EACFB5CFE894C7F890
S1132060DD24EE24FF24C601880F991F880F991FD1
S1132070FC01E755FE4F4082518262827382809157
S1132080A60181608093A6018A89823080F08D81C7
S11320909E81AF81B885880E991EAA1EBB1E8092B0
S11320A0A2019092A301A092A401B092A50181E0A3
S11320B0DF91CF911F910F91FF90EF90DF90CF9020
S11320C0BF90AF909F908F907F906F905F904F9054
S11320D008952F923F924F925F926F927F929F92B8
S11320E0AF92BF92CF92DF92EF92FF920F931F9322
S11320F0CF93DF93CDB7DEB760970FB6F894DEBF0A
S11321000FBECDBF5C0149875A876B877C87190155
S1132110D901CD90DD90ED90FC90C114D104E1047F
S1132120F10431F0BFEFCB1ADB0AEB0AFB0A10C053
S1132130FC01C080D180E280F380992493940985C6
S11321401A852B853C85013011052105310509F0DF
S1132150912CF50181859285A385B4858C019D011F
S11321600F5F1F4F2F4F3F4F0D871E872F87388BD1
S1132170260137011D821E821F821886F501818582
S11321809285A385B4850D811E812F81388508171A
S113219019072A073B0708F056C02D853E854F8551
S11321A05889241535054605570550F482E0482E14
S11321B0512C612C712C92E0C92ED12CE12CF12CE4
S11321C09E012F5F3F4FB301A201C5010E94DC0EA7
S11321D08823C9F149815A816B817C81D301C20171
S11321E00196A11DB11D452B462B472B19F06C01FF
S11321F07D010FC0AC01BD014C195D096E097F0959
S113220009851A852B853C8540175107620773079A
S113221079F02D813E814F8158852F5F3F4F4F4F7D
S11322205F4F2D833E834F8358872C013D01A6CFFA
S11322300FEF1FEF2FEF3FE0B301A201C5010E9492
S1132240C90F811118C080E041C0D301C2010197B8
S1132250A109B1098D839E83AF83B887930182015D
S1132260AC01BD01C5010E94C90F882361F34D80F3
S11322705E806F807884C414D504E604F70428F3E0
S1132280D1014D915D916D917C914115510561058F
S1132290710599F4F101C082D182E282F38299201E
S11322A0A1F0FFEFCF1ADF0AEF0AFF0AD501CD92A2
S11322B0DD92ED92FC92139708C097018601C50147
S11322C00E94C90F8111E6CFBECF81E060960FB6A0
S11322D0F894DEBF0FBECDBFDF91CF911F910F9158
S11322E0FF90EF90DF90CF90BF90AF909F907F9042
S11322F06F905F904F903F902F900895AF92BF9250
S1132300CF92DF92EF92FF920F931F93CF93DF93BD
S113231000D000D0CDB7DEB75C016A017B0182E05A
S113232090E0A0E0B0E0F50180839183A283B383C1
S11323309E012F5F3F4FB701A601C5010E94DC0E2D
S1132340882311F100E010E09801B701A601C5014E
S11323500E94C90F8823C1F0C980DA80EB80FC8019
S1132360F5018789803129F088EF9FEFAFEFBFE057
S113237004C088EF9FEFA0E0B0E0C816D906EA06D3
S1132380FB06B0F281E001C080E00F900F900F9047
S11323900F90DF91CF911F910F91FF90EF90DF90FD
S11323A0CF90BF90AF9008958F929F92AF92BF92BB
S11323B0CF92DF92EF92FF920F931F93CF93DF930D
S11323C0EC01142F7093A8016093A701442369F1D1
S11323D0453010F080E0F2C040E060E070E0CB01F6
S11323E00E947D0E8823B1F320E1129FA0011124E5
S11323F047565E4FFA01E254FE4F80818F7751F7C2
S11324003C9680819181A281B38184369105A10596
S1132410B10500F33497C080D180E280F380C11409
S1132420D104E104F10421F4D5CFC12CD12C7601DF
S113243040E0C701B6010E947D0E882359F28091C5
S1132440B4019091B5018115924021F69091B901A2
S1132450992309F4BFCF2091B7013091B801232B00
S113246009F4B8CF8091B601882309F4B3CF9A8BCD
S11324708C831D8690E061E070E02D85E22FAB0136
S1132480022E02C0440F551F0A94E2F784179507E1
S113249031F031E0320F3D87283078F39BCF209123
S11324A0BF013091C0012115310519F040E050E021
S11324B008C02091CD013091CE014091CF015091BF
S11324C0D0012D833E834F8358878091B70190912B
S11324D0B80146015701880E991EA11CB11C8B8AB4
S11324E09C8AAD8ABE8A0091BA011091BB01198FF2
S11324F0088FA091B901B0E00E94971C860E971E28
S1132500A81EB91E8A8E9B8EAC8EBD8E85E0000FF0
S1132510111F8A95E1F701501E4F012F11270695CF
S1132520800E911EA11CB11C8E869F86A88AB98A32
S11325302091BC013091BD012115310521F0A90183
S113254060E070E008C04091C9015091CA016091F7
S1132550CB017091CC01D701C60188199909AA0948
S1132560BB09840F951FA61FB71F04C0B695A79576
S113257097958795EA95D2F789879A87AB87BC8721
S1132580853F2FE09207A105B10510F48CE014C03B
S1132590853F9F4FA105B10510F480E10DC08091E6
S11325A0D5019091D601A091D701B091D8018A8F1D
S11325B09B8FAC8FBD8F80E28F8B81E0DF91CF91B9
S11325C01F910F91FF90EF90DF90CF90BF90AF904D
S11325D09F908F9008958091AA03813029F480916F
S11325E0A90381508093A9038091A90387FD03C0A7
S11325F081E08093F0040895E091AA038E2F90E087
S113260088309105C8F5FC01EC5CFF4F0C94911CDB
S113261060E083E00E94B21703C083E00E94CB17FE
S113262060E084E00E94B21723C060E083E00E946F
S1132630B21760E007C060E00BC060E083E00E9476
S1132640B21761E084E00E94B21761E012C061E059
S113265083E00E94B21761E0E4CF83E00E94CB17CD
S113266004C060E083E00E94B21784E00E94CB17AC
S113267060E085E00C94B217089584B5826084BD4F
S113268084B5816084BD85B5826085BD85B5816072
S113269085BDEEE6F0E080818160808308953F92FD
S11326A04F925F926F927F928F929F92AF92BF925E
S11326B0CF92DF92EF92FF920F931F93CF93DF930A
S11326C0CDB7DEB7E4970FB6F894DEBF0FBECDBF2B
S11326D08C0129013A014B01C12CD12C7601C8018E
S11326E00E94E101892B51F1C8010E9438018983BC
S11326F099270E94F01E892B91F7C414D504E6048F
S1132700F70411F1CE0102965C0133243394C8011D
S11327100E94E101892BD1F0C8010E9442010E946C
S1132720F01E892B99F4F1E33F1681F0C8010E9451
S11327303801F50181935F013394E9CF81E0C4143A
S1132740D504E604F70491F180E030C0C8010E948A
S1132750E101892B39F0C8010E9442010E94F01E58
S1132760892B91F3AA24A394B12CAC0EBD1EA30C07
S1132770B11CF501108240E050E0BE016D5C7F4F5A
S1132780CE0101960E94DE1D2BA93CA92A153B050A
S1132790D9F66F3F710509F0B8F6F40161934F0162
S11327A0FFEFCF1ADF0AEF0AFF0A99CFE4960FB6BC
S11327B0F894DEBF0FBECDBFDF91CF911F910F9173
S11327C0FF90EF90DF90CF90BF90AF909F908F904D
S11327D07F906F905F904F903F900895CF93DF93D9
S11327E0CDB7DEB7C057D1090FB6F894DEBF0FBE20
S11327F0CDBFCE018E5A9F4F0E94A101CE01C79634
S11328000E94A101CE014C960E94A101E1961CAE4A
S11328101DAE1EAE1FAEE19778940E94D31780E0E0
S11328200E943D1881E08093EF048091EF048111B0
S1132830FCCF80E090E00E94F91781E08093F004DF
S11328408091F0048111FCCF8091A9038F5F809364
S1132850A9030E94AE1761E083E00E94B21761E011
S113286084E00E94B21761E085E00E94B2170E94E2
S1132870D9160E943D131092AA036AE084E591E000
S11328800E942F02811103C083E08093AA038091E8
S1132890AA03811185C021E044E251E064E571E0BE
S11328A0CE0101960E9442038B819C8166969FAF64
S11328B08EAF66978D819E81AF81B8856A968CAF05
S11328C09DAFAEAFBFAF6A9789859A85AB85BC854E
S11328D06E968CAF9DAFAEAFBFAF6E978DE0FE012D
S11328E03D96A2E5B0E0AC0FBD1F1C9601900D9281
S11328F08A95E1F78A8D9B8DAD969FAF8EAFAD978C
S1132900CE018E5A9F4F0E942202882309F445C0AB
S113291066968EAD9FAD66979C838B836A968CADCD
S11329209DADAEADBFAD6A978D839E83AF83B887EF
S11329306E968CAD9DADAEADBFAD6E9789879A870F
S1132940AB87BC878EE091E09A8389838DE0E2E5D2
S1132950F0E0EC0FFD1F3C96DE011D9601900D92F8
S11329608A95E1F7AD968EAD9FADAD979B8F8A8F1B
S113297020E330E040E050E06BED73E0CE010196DF
S11329800E944F13811103C085E08093AA03CE01F6
S11329908E5A9F4F0E94100203C084E08093AA03C2
S11329A08091AA03882329F08091AA03811194C0FD
S11329B01DC0F8E8EF2EF0E0FF2E0BED13E0A0E3CE
S11329C0DA2ED00EF7018491F80161918F010E94F3
S11329D05D18FFEFEF1AFF0AD012F4CF81E0809365
S11329E0EF048091EF048111FCCFDECF21E04BE2B4
S11329F051E064E571E0CE0101960E9442038B81AF
S1132A009C819AAF89AF8D819E81AF81B8858BAF50
S1132A109CAFADAFBEAF89859A85AB85BC85239647
S1132A208CAF9DAFAEAFBFAF23978DE0FE013D9657
S1132A30DE01AD5BBF4F01900D928A95E1F78A8D5F
S1132A409B8D62969FAF8EAF6297CE01C7960E9410
S1132A5022028823F1F189AD9AAD9C838B838BADDF
S1132A609CADADADBEAD8D839E83AF83B8872396F9
S1132A708CAD9DADAEADBFAD239789879A87AB87EB
S1132A80BC878EE091E09A8389838DE0FE01ED5B43
S1132A90FF4FDE011D9601900D928A95E1F7629633
S1132AA08EAD9FAD62979B8F8A8F20E330E040E02C
S1132AB050E06BEA73E0CE0101960E944F1381113E
S1132AC003C085E08093AA03CE01C7960E9410023A
S1132AD003C084E08093AA038091AA03811133C0C8
S1132AE021E044E351E064E571E0CE0101960E94E7
S1132AF042038B819C819F8F8E8F8D819E81AF81BC
S1132B00B88588A399A3AAA3BBA389859A85AB8515
S1132B10BC858CA39DA3AEA3BFA38DE0FE013D960F
S1132B20DE01989601900D928A95E1F78A8D9B8D2E
S1132B309EAB8DABCE014C960E942202811103C044
S1132B4084E08093AA038091AA03811135C0CE0149
S1132B504C960E94D101603271058105910520F4E3
S1132B6085E08093AA0328C044E050E0BE016F5F73
S1132B707F4FCE014C960E943C1C44E050E0BE01C5
S1132B806B5F7F4FCE014C960E943C1C44E050E0AA
S1132B90BE01675F7F4FCE014C960E943C1C44E00F
S1132BA050E0BE01635F7F4FCE014C960E943C1CF7
S1132BB0198A1A8A1B8A1C8A8091AA0381112CC043
S1132BC08D819E81AF81B885C097A105B10519F0AB
S1132BD085E08093AA03CE014C960E94D1016B013B
S1132BE07C012D813E814F8158856D857E858F8541
S1132BF098890E945F1CDC01CB014096A11DB11D88
S1132C00880F991FAA1FBB1FC816D906EA06FB0620
S1132C1019F085E08093AA0369857A858B859C8564
S1132C200E9422190E94F31869877A878B879C87F0
S1132C308091AA03811103C081E08093AA030E94BA
S1132C400E178091AA03813099F449855A856B85C2
S1132C507C858BEE92E10E94161744EF51E060E010
S1132C6070E08CEF92E10E9416171092A9030AC03B
S1132C7044EF51E060E070E08CEF92E10E9416179F
S1132C800E94E31640E250E060E070E0CE014C9612
S1132C900E94B40111E0BB24B3948BEA93E000E3F7
S1132CA0080F56E0A52E67E0962E72E0872E8091DD
S1132CB0AA03813009F04FC08091A9031816E4F3E8
S1132CC08091F0048111FCCF49895A896B897C89F0
S1132CD08D859E85AF85B889481759076A077B0794
S1132CE019F48092AA03E3CF38E8C32E30E0D32E40
S1132CF04BEAE42E43E0F42E42E050E0BE01635977
S1132D007F4FCE014C960E943C1C029719F0909282
S1132D10AA031BC0F6017490F701A1917F01B0E0F2
S1132D201196E1962CAD3DAD4EAD5FADE1970E949D
S1132D30971C672F782F892F9927872D0E941418A5
S1132D40FFEFCF1ADF0A0E11D7CF8091AA03882391
S1132D5009F4ADCF0FC0111102C010E0A8CF80E07C
S1132D6090E00E94F917B092F0048091F004811170
S1132D70FCCFF3CF89899A89AB89BC890196A11DBF
S1132D80B11D898B9A8BAB8BBC8B9FB7F8948091C8
S1132D90A90387FF03C0A092AA0305C08091A903D9
S1132DA08F5F8093A9039FBF1123B9F20E94E3169A
S1132DB0D4CF88E0809381008FE79EE390938900CD
S1132DC08093880008951092B3041092B404109272
S1132DD0B5041092B60480910B04882391F01092EC
S1132DE0B7041092B8041092B9041092BA04823055
S1132DF040F01092BB041092BC041092BD041092D7
S1132E00BE0410928500109284008091810081603C
S1132E108093810082E080936F000895E1E8F0E000
S1132E208081887F808310926F000895A0910B04A5
S1132E302A2F30E0F901EE0FFF1FE154FB4F91837D
S1132E408083220F331F220F331FF901ED53FB4FF1
S1132E50408351836283738351E05A0F50930B0470
S1132E6008951F920F920FB60F921124EF92FF92C2
S1132E701F932F933F934F935F936F937F938F93FE
S1132E809F93AF93BF93CF93DF93EF93FF9380917F
S1132E90B3049091B404A091B504B091B604019622
S1132EA0A11DB11D8093B3049093B404A093B50401
S1132EB0B093B60410E080910B041817C8F5812F65
S1132EC090E0EC01CC0FDD1FCC0FDD1FFE01E954B7
S1132ED0FB4F4081518162817381452B462B472BE7
S1132EE049F4880F991FFC01E154FB4F0190F081D4
S1132EF0E02D0995CE0189549B4F7C01FC01808112
S1132F009181A281B381BC01CD016F5F7F4F8F4F4F
S1132F109F4FCD53DB4F288139814A815B810E94C9
S1132F206F1CF70160837183828393831F5FC3CF18
S1132F30FF91EF91DF91CF91BF91AF919F918F91CD
S1132F407F916F915F914F913F912F911F91FF90CE
S1132F50EF900F900FBE0F901F90189587B1886364
S1132F6087B9089548B121E030E0662349F0B901FA
S1132F7002C0660F771F8A95E2F7CB01842B09C044
S1132F80B90102C0660F771F8A95E2F7CB018095DD
S1132F90842388B9089521E030E001C0220F8A9586
S1132FA0EAF726B90895209A549A529A219A539A84
S1132FB0519A28985C985A9829985B98E4ECF0E028
S1132FC01182108280EC8093C20088E08093C1005B
S1132FD01182108282E08093B00087E08093B10078
S1132FE083E08093B300E0E7F0E080818260808337
S1132FF008959C0194E0369527959A95E1F7422F20
S1133000982F22952F708295807F822B20E030E0CC
S1133010F901EF50FB4F4083818392832D5F3F4F33
S113302028343105A9F708959FE2981B892F93E06E
S1133030899FF0011124F595E795DF01BB27EF5F28
S1133040AF50BB4F80FD10C0CB0124E0969587950F
S11330502A95E1F78C93F0E0EF50FB4F80818F705D
S11330606295607F682B07C08C91807F872B8C933F
S1133070F0E0EF50FB4F60830895982F990F990F5C
S1133080492F440F440F342F330F330F282F229529
S11330902F70922B282F26952695422B832B20E0E8
S11330A030E0F901E553FB4F9083418382832D5F28
S11330B03F4F24323105A9F708952FE2281B33E04E
S11330C0239FC00111249595879595958795237025
S11330D0FC01E553FB4F2130D9F0A8F0223049F52B
S11330E09081907F262F26952695922B90838F5F33
S11330F0E82FF0E0E553FB4F80818F736295660FF4
S1133100660F607C18C080818370660F660F13C0E1
S113311090819C7F262F22952F70922B90838F5F16
S1133120E82FF0E0E553FB4F80818F706295607F5C
S113313002C08081807C682B608308951F920F9267
S11331400FB60F9211248F939F93EF93FF935B9A83
S113315080910C04882321F0299A299810920C0458
S11331605A9B03C05A985C9A5C985B988091EF04D0
S11331708823D1F05A9A1092C6008091C00085FF2E
S1133180FCCFEBECF4E084E28E0F91919093C600B7
S11331909091C00095FFFCCF8E13F7CF81E0809310
S11331A00C041092EF0416C08091F004882391F06F
S11331B0E1EFF4E088E48E0F91919093C600909132
S11331C0C00095FFFCCF8E13F7CF81E080930C04F1
S11331D01092F004FF91EF919F918F910F900FBE89
S11331E00F901F9018950E94671988F09F5798F0C8
S11331F0B92F9927B751B0F0E1F0660F771F881FF8
S1133200991F1AF0BA95C9F714C0B13091F00E9411
S11332108119B1E008950C948119672F782F8827BC
S1133220B85F39F0B93FCCF3869577956795B39538
S1133230D9F73EF490958095709561957F4F8F4FA7
S11332409F4F0895E89409C097FB3EF490958095AC
S1133250709561957F4F8F4F9F4F9923A9F0F92F58
S113326096E9BB279395F695879577956795B795D6
S1133270F111F8CFFAF4BB0F11F460FF1BC06F5FBC
S11332807F4F8F4F9F4F16C0882311F096E911C0CE
S1133290772321F09EE8872F762F05C0662371F0EF
S11332A096E8862F70E060E02AF09A95660F771F03
S11332B0881FDAF7880F9695879597F9089557FD33
S11332C09058440F551F59F05F3F71F04795880F90
S11332D097FB991F61F09F3F79F087950895121627
S11332E013061406551FF2CF4695F1DF08C01616D3
S11332F017061806991FF1CF869571056105089484
S11333000895E894BB2766277727CB0197F908959A
S11333101F920F920FB60F9211242F933F938F9306
S11333209F93AF93BF9380910E0490910F04A0914B
S11333301004B091110430910D0423E0230F2D37B4
S113334020F40196A11DB11D05C026E8230F0296A5
S1133350A11DB11D20930D0480930E0490930F04BE
S1133360A0931004B093110480911204909113045B
S1133370A0911404B09115040196A11DB11D809370
S1133380120490931304A0931404B0931504BF91F2
S1133390AF919F918F913F912F910F900FBE0F90FE
S11333A01F9018952FB7F89460910E0470910F0434
S11333B080911004909111042FBF0895833081F0FF
S11333C028F4813099F08230A1F008958730A9F073
S11333D08830B9F08430D1F4809180008F7D03C0AF
S11333E0809180008F7780938000089584B58F77D3
S11333F002C084B58F7D84BD08958091B0008F771D
S113340003C08091B0008F7D8093B0000895CF9366
S1133410DF9390E0FC01E453FF4F2491FC01E05260
S1133420FF4F8491882349F190E0880F991FFC0194
S1133430E250FF4FA591B4918C509F4FFC01C59170
S1133440D4919FB7611108C0F8948C912095822380
S11334508C93888182230AC0623051F4F8948C9151
S1133460322F309583238C938881822B888304C0E8
S1133470F8948C91822B8C939FBFDF91CF91089508
S11334800F931F93CF93DF931F92CDB7DEB7282FEF
S113349030E0F901E854FF4F8491F901E453FF4F00
S11334A01491F901E052FF4F04910023C9F08823DD
S11334B021F069830E94DE196981E02FF0E0EE0FAC
S11334C0FF1FEC50FF4FA591B4919FB7F8948C91D6
S11334D0611103C01095812301C0812B8C939FBF80
S11334E00F90DF91CF911F910F910895FC01818D71
S11334F0228D90E0805C9F4F821B91098F739927E6
S11335000895FC01918D828D981731F0828DE80F1A
S1133510F11D858D90E008958FEF9FEF0895FC01D4
S1133520918D828D981761F0828DDF01A80FB11DF6
S11335305D968C91928D9F5F9F73928F90E008951A
S11335408FEF9FEF0895FC01848DDF01A80FB11D5B
S1133550A35ABF4F2C91848D90E001968F739927C5
S1133560848FA689B7892C93A089B1898C918064B2
S11335708C93938D848D981306C00288F389E02D73
S113358080818F7D80830895CF93DF93EC01888DB4
S11335908823C9F0EA89FB89808185FD05C0A88953
S11335A0B9898C9186FD0FC00FB607FCF5CF8081D9
S11335B085FFF2CFA889B9898C9185FFEDCFCE0123
S11335C00E94A31AE7CFDF91CF910895CF92DF92A3
S11335D0FF920F931F93CF93DF931F92CDB7DEB764
S11335E06C0181E0D60158968C9358975B969C9118
S11335F05B975C968C915C97981307C05096ED91FD
S1133600FC915197808185FD2EC0F601038D10E059
S11336100F5F1F4F0F731127F02EF601848DF812E0
S113362011C00FB607FCF9CFD6015096ED91FC916D
S11336305197808185FFF1CFC60169830E94A31A47
S11336406981EBCF838DE80FF11DE35AFF4F60834F
S1133650D6015B960C935B975296ED91FC91539730
S1133660808180620CC0D6015696ED91FC915797EB
S113367060835096ED91FC915197808180648083A2
S113368081E090E00F90DF91CF911F910F91FF9017
S1133690DF90CF9008951F920F920FB60F921124CE
S11336A02F938F939F93EF93FF93E0912604F091D0
S11336B027048081E0912C04F0912D0482FD12C036
S11336C0908180912F048F5F8F7320913004821733
S11336D051F0E0912F04F0E0EA5EFB4F958F809368
S11336E02F0401C08081FF91EF919F918F912F91C1
S11336F00F900FBE0F901F9018951F920F920FB648
S11337000F9211242F933F934F935F936F937F9363
S11337108F939F93AF93BF93EF93FF9386E194E0CE
S11337200E94A31AFF91EF91BF91AF919F918F9146
S11337307F916F915F914F913F912F910F900FBEA9
S11337400F901F901895109219041092180488EE87
S113375093E0A0E0B0E080931A0490931B04A0933C
S11337601C04B0931D0484E491E0909317048093A7
S1133770160485EC90E0909323048093220484EC57
S113378090E0909325048093240480EC90E090933F
S113379027048093260481EC90E09093290480937D
S11337A0280482EC90E090932B0480932A0486EC06
S11337B090E090932D0480932C0410922F04109287
S11337C0300410923104109232040895CF92DF92A3
S11337D0EF92FF920F931F93CF93DF936C017A01C3
S11337E0EB01E60EF71E00E010E0CE15DF0561F0F8
S11337F06991D601ED91FC910190F081E02DC60113
S11338000995080F191FF1CFC801DF91CF911F91BE
S11338100F91FF90EF90DF90CF9008950F931F9337
S1133820CF93DF93EC010E94D219688779878A8746
S11338309B87E881F9810680F781E02DCE01099507
S113384097FF15C00E94D219088519852A853B85E2
S1133850601B710B820B930B0C811D812E813F81A8
S1133860601771078207930720F38FEF9FEFDF91B3
S1133870CF911F910F910895CF92DF92EF92FF9213
S11338800F931F93CF93DF937C016A01EB0100E058
S113389010E00C151D0549F0C7010E940E1C97FD90
S11338A004C089930F5F1F4FF4CFC801DF91CF91FC
S11338B01F910F91FF90EF90DF90CF900895DB015F
S11338C08F939F930E94971CBF91AF91A29F800DED
S11338D0911DA39F900DB29F900D11240895A1E214
S11338E01A2EAA1BBB1BFD010DC0AA1FBB1FEE1F76
S11338F0FF1FA217B307E407F50720F0A21BB30BC1
S1133900E40BF50B661F771F881F991F1A9469F73C
S113391060957095809590959B01AC01BD01CF0198
S11339200895EE0FFF1F0590F491E02D09940E9475
S1133930A21CA59F900DB49F900DA49F800D911D76
S113394011240895A29FB001B39FC001A39F700DDD
S1133950811D1124911DB29F700D811D1124911D93
S11339600895CF93DF938230910510F482E090E0C4
S1133970E0913B05F0913C0520E030E0C0E0D0E070
S1133980309711F14081518148175907C0F0481709
S1133990590761F482819381209719F09B838A836C
S11339A02BC090933C0580933B0526C0211531051F
S11339B019F04217530718F49A01BE01DF01EF0111
S11339C00280F381E02DDCCF2115310509F1281B9C
S11339D0390B2430310590F412968D919C911397F4
S11339E06115710521F0FB019383828304C09093D8
S11339F03C0580933B05FD01329644C0FD01E20F76
S1133A00F31F81939193225031092D933C933AC033
S1133A102091390530913A05232B41F4209102017C
S1133A203091030130933A05209339052091000128
S1133A30309101012115310541F42DB73EB7409174
S1133A40040150910501241B350BE0913905F091D7
S1133A503A05E217F307A0F42E1B3F0B281739078A
S1133A6078F0AC014E5F5F4F2417350748F04E0FD6
S1133A705F1F50933A05409339058193919302C097
S1133A80E0E0F0E0CF01DF91CF9108950F931F9311
S1133A90CF93DF93009709F48CC0FC013297138213
S1133AA0128200913B0510913C050115110581F42A
S1133AB020813181820F931F2091390530913A057D
S1133AC02817390779F5F0933A05E093390571C061
S1133AD0D80140E050E0AE17BF0750F412962D9184
S1133AE03C911397AD012115310509F1D901F3CFAB
S1133AF09D01DA013383228360817181860F971FD0
S1133B008217930769F4EC0128813981260F371F46
S1133B102E5F3F4F318320838A819B8193838283ED
S1133B20452B29F4F0933C05E0933B0542C01396E2
S1133B30FC93EE931297ED01499159919E01240F44
S1133B40351FE217F30771F480819181840F951F6B
S1133B50029611969C938E938281938113969C93E3
S1133B608E931297E0E0F0E0D80112968D919C912B
S1133B701397009719F0F8018C01F6CF8D919C9161
S1133B8098012E5F3F4F820F931F2091390530918A
S1133B903A052817390769F4309729F410923C053F
S1133BA010923B0502C01382128210933A050093CF
S1133BB03905DF91CF911F910F910895A6E0B0E0F0
S1133BC0E4EEFDE10C94231F5C016B017A016115A5
S1133BD0710519F0DB018D939C93E114F10429F034
S1133BE0C7010297839708F0DCC03501BFEF6B1A59
S1133BF07B0AF5011081812F90E00E94F01E892B31
S1133C0011F05301F2CF1D3249F43501F2E06F0E89
S1133C10711CD50111961C9101E009C01B3231F4CD
S1133C203501B2E06B0E711CF501118100E0E11465
S1133C30F10409F4C4C0F0E1EF16F10489F410337F
S1133C4099F5D3018C918F7D883509F0B2C0119616
S1133C501C91B2E06B0E711C026050E1E52EF12C58
S1133C60EAE0EE16F10409F4B0C0F0E1EF16F10455
S1133C70D9F028E0E216F10451F438E0E32EF12CF7
S1133C8088248A94982CA82C4FE1B42E13C06FEF8B
S1133C907FEFCB0197010F2C000C440B550B0E94B6
S1133CA06F1C49015A0106C088248A94982CA82CB8
S1133CB02FE0B22E7E826D8260E020E030E0A90128
S1133CC027010F2C000C660877082D803E80E0ED5C
S1133CD0E10FEA3060F08FEB810F8A3110F4E9ECE8
S1133CE005C08FE9810F8A3190F5E9EAE10F8E2F43
S1133CF090E08E159F055CF56F3F09F182169306DF
S1133D00A406B506D8F0C301B2010E945F1C2E2F91
S1133D1030E040E050E029833A834B835C83260FF4
S1133D20371F481F591F89819A81AB81BC8128178D
S1133D3039074A075B0710F061E001C06FEFED81BE
S1133D40FE813196FE83ED83D1011C91BECFC11457
S1133D50D10489F0662339F08D819E810197F601A3
S1133D609183808308C001FF06C08D819E810297E4
S1133D70D6018D939C9300FF07C0509540953095D4
S1133D8021953F4F4F4F5F4F67FF10C082E290E095
S1133D9090933E0580933D056FEF7FEF8FEF9FEF8C
S1133DA01BC060E070E080E090E016C0B901CA0179
S1133DB013C010E3E114F10409F45FCF51CF1033C1
S1133DC009F43FCF9AE0E92EF12C89E9882E982C4A
S1133DD0A82C89E1B82E6ECF2696E2E10C943F1F01
S1133DE091110C94201F803219F089508550C8F726
S1133DF00895FB01DC0104C08D910190801921F428
S1133E0041505040C8F7881B990B0895FC018191DB
S1133E10861721F08823D9F7992708953197CF0180
S1133E200895FB01DC014150504048F001900D928F
S1133E300020C9F701C01D9241505040E0F7089599
S1133E409927882708952F923F924F925F926F92FD
S1133E507F928F929F92AF92BF92CF92DF92EF9216
S1133E60FF920F931F93CF93DF93CDB7DEB7CA1B97
S1133E70DB0B0FB6F894DEBF0FBECDBF09942A88C2
S1133E80398848885F846E847D848C849B84AA846A
S1133E90B984C884DF80EE80FD800C811B81AA81F7
S1133EA0B981CE0FD11D0FB6F894DEBF0FBECDBFC2
S10B3EB0ED010895F894FFCF21
S1133EB800003F052000FFFFFFFF00000000E700AF
S1133EC8FD00E1013801420119012F000000000042
S1133ED8310EE61B64632E747874006763616C2E7C
S1133EE87478740070726F6772616D2E6C706600FE
S1133EF800000000E61AE61B761A8F1A811AC41A03
S9030000FC
